{
	"restricted-Access.sol": {
		"restrictedAccess": {
			"abi": [
				{
					"inputs": [
						{
							"internalType": "address",
							"name": "_owner",
							"type": "address"
						}
					],
					"name": "changeOwner",
					"outputs": [],
					"stateMutability": "nonpayable",
					"type": "function"
				},
				{
					"inputs": [],
					"name": "creationTime",
					"outputs": [
						{
							"internalType": "uint256",
							"name": "",
							"type": "uint256"
						}
					],
					"stateMutability": "view",
					"type": "function"
				},
				{
					"inputs": [],
					"name": "disown",
					"outputs": [],
					"stateMutability": "nonpayable",
					"type": "function"
				},
				{
					"inputs": [
						{
							"internalType": "address",
							"name": "_newOwner",
							"type": "address"
						}
					],
					"name": "forceOwnerChange",
					"outputs": [],
					"stateMutability": "payable",
					"type": "function"
				},
				{
					"inputs": [],
					"name": "owner",
					"outputs": [
						{
							"internalType": "address",
							"name": "",
							"type": "address"
						}
					],
					"stateMutability": "view",
					"type": "function"
				}
			],
			"devdoc": {
				"kind": "dev",
				"methods": {},
				"version": 1
			},
			"evm": {
				"assembly": "    /* \"restricted-Access.sol\":30:908  contract restrictedAccess{... */\n  mstore(0x40, 0x80)\n    /* \"restricted-Access.sol\":85:95  msg.sender */\n  caller\n    /* \"restricted-Access.sol\":62:95  address public owner = msg.sender */\n  0x00\n  dup1\n  0x0100\n  exp\n  dup2\n  sload\n  dup2\n  0xffffffffffffffffffffffffffffffffffffffff\n  mul\n  not\n  and\n  swap1\n  dup4\n  0xffffffffffffffffffffffffffffffffffffffff\n  and\n  mul\n  or\n  swap1\n  sstore\n  pop\n    /* \"restricted-Access.sol\":129:144  block.timestamp */\n  timestamp\n    /* \"restricted-Access.sol\":102:144  uint public creationTime = block.timestamp */\n  0x01\n  sstore\n    /* \"restricted-Access.sol\":30:908  contract restrictedAccess{... */\n  callvalue\n  dup1\n  iszero\n  tag_1\n  jumpi\n  0x00\n  dup1\n  revert\ntag_1:\n  pop\n  dataSize(sub_0)\n  dup1\n  dataOffset(sub_0)\n  0x00\n  codecopy\n  0x00\n  return\nstop\n\nsub_0: assembly {\n        /* \"restricted-Access.sol\":30:908  contract restrictedAccess{... */\n      mstore(0x40, 0x80)\n      jumpi(tag_1, lt(calldatasize, 0x04))\n      shr(0xe0, calldataload(0x00))\n      dup1\n      0x0cb0c7f0\n      eq\n      tag_2\n      jumpi\n      dup1\n      0x1e9bf0da\n      eq\n      tag_3\n      jumpi\n      dup1\n      0x8da5cb5b\n      eq\n      tag_4\n      jumpi\n      dup1\n      0xa6f9dae1\n      eq\n      tag_5\n      jumpi\n      dup1\n      0xd8270dce\n      eq\n      tag_6\n      jumpi\n    tag_1:\n      0x00\n      dup1\n      revert\n        /* \"restricted-Access.sol\":793:905  function forceOwnerChange(address _newOwner) costs(200 ether) public payable{... */\n    tag_2:\n      tag_7\n      0x04\n      dup1\n      calldatasize\n      sub\n      dup2\n      add\n      swap1\n      tag_8\n      swap2\n      swap1\n      tag_9\n      jump\t// in\n    tag_8:\n      tag_10\n      jump\t// in\n    tag_7:\n      stop\n        /* \"restricted-Access.sol\":529:636  function disown() onlyBy(owner) onlyAfter(creationTime + 3 seconds) public{... */\n    tag_3:\n      callvalue\n      dup1\n      iszero\n      tag_11\n      jumpi\n      0x00\n      dup1\n      revert\n    tag_11:\n      pop\n      tag_12\n      tag_13\n      jump\t// in\n    tag_12:\n      stop\n        /* \"restricted-Access.sol\":62:95  address public owner = msg.sender */\n    tag_4:\n      callvalue\n      dup1\n      iszero\n      tag_14\n      jumpi\n      0x00\n      dup1\n      revert\n    tag_14:\n      pop\n      tag_15\n      tag_16\n      jump\t// in\n    tag_15:\n      mload(0x40)\n      tag_17\n      swap2\n      swap1\n      tag_18\n      jump\t// in\n    tag_17:\n      mload(0x40)\n      dup1\n      swap2\n      sub\n      swap1\n      return\n        /* \"restricted-Access.sol\":430:521  function changeOwner(address _owner) onlyBy(owner) public {... */\n    tag_5:\n      callvalue\n      dup1\n      iszero\n      tag_19\n      jumpi\n      0x00\n      dup1\n      revert\n    tag_19:\n      pop\n      tag_20\n      0x04\n      dup1\n      calldatasize\n      sub\n      dup2\n      add\n      swap1\n      tag_21\n      swap2\n      swap1\n      tag_9\n      jump\t// in\n    tag_21:\n      tag_22\n      jump\t// in\n    tag_20:\n      stop\n        /* \"restricted-Access.sol\":102:144  uint public creationTime = block.timestamp */\n    tag_6:\n      callvalue\n      dup1\n      iszero\n      tag_23\n      jumpi\n      0x00\n      dup1\n      revert\n    tag_23:\n      pop\n      tag_24\n      tag_25\n      jump\t// in\n    tag_24:\n      mload(0x40)\n      tag_26\n      swap2\n      swap1\n      tag_27\n      jump\t// in\n    tag_26:\n      mload(0x40)\n      dup1\n      swap2\n      sub\n      swap1\n      return\n        /* \"restricted-Access.sol\":793:905  function forceOwnerChange(address _newOwner) costs(200 ether) public payable{... */\n    tag_10:\n        /* \"restricted-Access.sol\":844:853  200 ether */\n      0x0ad78ebc5ac6200000\n        /* \"restricted-Access.sol\":709:716  _amount */\n      dup1\n        /* \"restricted-Access.sol\":696:705  msg.value */\n      callvalue\n        /* \"restricted-Access.sol\":696:716  msg.value >= _amount */\n      lt\n      iszero\n        /* \"restricted-Access.sol\":688:765  require(msg.value >= _amount,... */\n      tag_29\n      jumpi\n      mload(0x40)\n      0x08c379a000000000000000000000000000000000000000000000000000000000\n      dup2\n      mstore\n      0x04\n      add\n      tag_30\n      swap1\n      tag_31\n      jump\t// in\n    tag_30:\n      mload(0x40)\n      dup1\n      swap2\n      sub\n      swap1\n      revert\n    tag_29:\n        /* \"restricted-Access.sol\":888:897  _newOwner */\n      dup2\n        /* \"restricted-Access.sol\":880:885  owner */\n      0x00\n      dup1\n        /* \"restricted-Access.sol\":880:897  owner = _newOwner */\n      0x0100\n      exp\n      dup2\n      sload\n      dup2\n      0xffffffffffffffffffffffffffffffffffffffff\n      mul\n      not\n      and\n      swap1\n      dup4\n      0xffffffffffffffffffffffffffffffffffffffff\n      and\n      mul\n      or\n      swap1\n      sstore\n      pop\n        /* \"restricted-Access.sol\":793:905  function forceOwnerChange(address _newOwner) costs(200 ether) public payable{... */\n      pop\n      pop\n      jump\t// out\n        /* \"restricted-Access.sol\":529:636  function disown() onlyBy(owner) onlyAfter(creationTime + 3 seconds) public{... */\n    tag_13:\n        /* \"restricted-Access.sol\":554:559  owner */\n      0x00\n      dup1\n      sload\n      swap1\n      0x0100\n      exp\n      swap1\n      div\n      0xffffffffffffffffffffffffffffffffffffffff\n      and\n        /* \"restricted-Access.sol\":215:223  _account */\n      dup1\n        /* \"restricted-Access.sol\":201:223  msg.sender == _account */\n      0xffffffffffffffffffffffffffffffffffffffff\n      and\n        /* \"restricted-Access.sol\":201:211  msg.sender */\n      caller\n        /* \"restricted-Access.sol\":201:223  msg.sender == _account */\n      0xffffffffffffffffffffffffffffffffffffffff\n      and\n      eq\n        /* \"restricted-Access.sol\":193:261  require(msg.sender == _account,... */\n      tag_34\n      jumpi\n      mload(0x40)\n      0x08c379a000000000000000000000000000000000000000000000000000000000\n      dup2\n      mstore\n      0x04\n      add\n      tag_35\n      swap1\n      tag_36\n      jump\t// in\n    tag_35:\n      mload(0x40)\n      dup1\n      swap2\n      sub\n      swap1\n      revert\n    tag_34:\n        /* \"restricted-Access.sol\":586:595  3 seconds */\n      0x03\n        /* \"restricted-Access.sol\":571:583  creationTime */\n      sload(0x01)\n        /* \"restricted-Access.sol\":571:595  creationTime + 3 seconds */\n      tag_37\n      swap2\n      swap1\n      tag_38\n      jump\t// in\n    tag_37:\n        /* \"restricted-Access.sol\":352:356  time */\n      dup1\n        /* \"restricted-Access.sol\":333:348  block.timestamp */\n      timestamp\n        /* \"restricted-Access.sol\":333:356  block.timestamp >= time */\n      lt\n      iszero\n        /* \"restricted-Access.sol\":325:402  require(block.timestamp >= time,... */\n      tag_40\n      jumpi\n      mload(0x40)\n      0x08c379a000000000000000000000000000000000000000000000000000000000\n      dup2\n      mstore\n      0x04\n      add\n      tag_41\n      swap1\n      tag_42\n      jump\t// in\n    tag_41:\n      mload(0x40)\n      dup1\n      swap2\n      sub\n      swap1\n      revert\n    tag_40:\n        /* \"restricted-Access.sol\":621:626  owner */\n      0x00\n      dup1\n        /* \"restricted-Access.sol\":614:626  delete owner */\n      0x0100\n      exp\n      dup2\n      sload\n      swap1\n      0xffffffffffffffffffffffffffffffffffffffff\n      mul\n      not\n      and\n      swap1\n      sstore\n        /* \"restricted-Access.sol\":268:269  _ */\n      pop\n        /* \"restricted-Access.sol\":529:636  function disown() onlyBy(owner) onlyAfter(creationTime + 3 seconds) public{... */\n      pop\n      jump\t// out\n        /* \"restricted-Access.sol\":62:95  address public owner = msg.sender */\n    tag_16:\n      0x00\n      dup1\n      sload\n      swap1\n      0x0100\n      exp\n      swap1\n      div\n      0xffffffffffffffffffffffffffffffffffffffff\n      and\n      dup2\n      jump\t// out\n        /* \"restricted-Access.sol\":430:521  function changeOwner(address _owner) onlyBy(owner) public {... */\n    tag_22:\n        /* \"restricted-Access.sol\":474:479  owner */\n      0x00\n      dup1\n      sload\n      swap1\n      0x0100\n      exp\n      swap1\n      div\n      0xffffffffffffffffffffffffffffffffffffffff\n      and\n        /* \"restricted-Access.sol\":215:223  _account */\n      dup1\n        /* \"restricted-Access.sol\":201:223  msg.sender == _account */\n      0xffffffffffffffffffffffffffffffffffffffff\n      and\n        /* \"restricted-Access.sol\":201:211  msg.sender */\n      caller\n        /* \"restricted-Access.sol\":201:223  msg.sender == _account */\n      0xffffffffffffffffffffffffffffffffffffffff\n      and\n      eq\n        /* \"restricted-Access.sol\":193:261  require(msg.sender == _account,... */\n      tag_45\n      jumpi\n      mload(0x40)\n      0x08c379a000000000000000000000000000000000000000000000000000000000\n      dup2\n      mstore\n      0x04\n      add\n      tag_46\n      swap1\n      tag_36\n      jump\t// in\n    tag_46:\n      mload(0x40)\n      dup1\n      swap2\n      sub\n      swap1\n      revert\n    tag_45:\n        /* \"restricted-Access.sol\":507:513  _owner */\n      dup2\n        /* \"restricted-Access.sol\":499:504  owner */\n      0x00\n      dup1\n        /* \"restricted-Access.sol\":499:513  owner = _owner */\n      0x0100\n      exp\n      dup2\n      sload\n      dup2\n      0xffffffffffffffffffffffffffffffffffffffff\n      mul\n      not\n      and\n      swap1\n      dup4\n      0xffffffffffffffffffffffffffffffffffffffff\n      and\n      mul\n      or\n      swap1\n      sstore\n      pop\n        /* \"restricted-Access.sol\":430:521  function changeOwner(address _owner) onlyBy(owner) public {... */\n      pop\n      pop\n      jump\t// out\n        /* \"restricted-Access.sol\":102:144  uint public creationTime = block.timestamp */\n    tag_25:\n      sload(0x01)\n      dup2\n      jump\t// out\n        /* \"#utility.yul\":88:205   */\n    tag_49:\n        /* \"#utility.yul\":197:198   */\n      0x00\n        /* \"#utility.yul\":194:195   */\n      dup1\n        /* \"#utility.yul\":187:199   */\n      revert\n        /* \"#utility.yul\":334:460   */\n    tag_51:\n        /* \"#utility.yul\":371:378   */\n      0x00\n        /* \"#utility.yul\":411:453   */\n      0xffffffffffffffffffffffffffffffffffffffff\n        /* \"#utility.yul\":404:409   */\n      dup3\n        /* \"#utility.yul\":400:454   */\n      and\n        /* \"#utility.yul\":389:454   */\n      swap1\n      pop\n        /* \"#utility.yul\":334:460   */\n      swap2\n      swap1\n      pop\n      jump\t// out\n        /* \"#utility.yul\":466:562   */\n    tag_52:\n        /* \"#utility.yul\":503:510   */\n      0x00\n        /* \"#utility.yul\":532:556   */\n      tag_72\n        /* \"#utility.yul\":550:555   */\n      dup3\n        /* \"#utility.yul\":532:556   */\n      tag_51\n      jump\t// in\n    tag_72:\n        /* \"#utility.yul\":521:556   */\n      swap1\n      pop\n        /* \"#utility.yul\":466:562   */\n      swap2\n      swap1\n      pop\n      jump\t// out\n        /* \"#utility.yul\":568:690   */\n    tag_53:\n        /* \"#utility.yul\":641:665   */\n      tag_74\n        /* \"#utility.yul\":659:664   */\n      dup2\n        /* \"#utility.yul\":641:665   */\n      tag_52\n      jump\t// in\n    tag_74:\n        /* \"#utility.yul\":634:639   */\n      dup2\n        /* \"#utility.yul\":631:666   */\n      eq\n        /* \"#utility.yul\":621:684   */\n      tag_75\n      jumpi\n        /* \"#utility.yul\":680:681   */\n      0x00\n        /* \"#utility.yul\":677:678   */\n      dup1\n        /* \"#utility.yul\":670:682   */\n      revert\n        /* \"#utility.yul\":621:684   */\n    tag_75:\n        /* \"#utility.yul\":568:690   */\n      pop\n      jump\t// out\n        /* \"#utility.yul\":696:835   */\n    tag_54:\n        /* \"#utility.yul\":742:747   */\n      0x00\n        /* \"#utility.yul\":780:786   */\n      dup2\n        /* \"#utility.yul\":767:787   */\n      calldataload\n        /* \"#utility.yul\":758:787   */\n      swap1\n      pop\n        /* \"#utility.yul\":796:829   */\n      tag_77\n        /* \"#utility.yul\":823:828   */\n      dup2\n        /* \"#utility.yul\":796:829   */\n      tag_53\n      jump\t// in\n    tag_77:\n        /* \"#utility.yul\":696:835   */\n      swap3\n      swap2\n      pop\n      pop\n      jump\t// out\n        /* \"#utility.yul\":841:1170   */\n    tag_9:\n        /* \"#utility.yul\":900:906   */\n      0x00\n        /* \"#utility.yul\":949:951   */\n      0x20\n        /* \"#utility.yul\":937:946   */\n      dup3\n        /* \"#utility.yul\":928:935   */\n      dup5\n        /* \"#utility.yul\":924:947   */\n      sub\n        /* \"#utility.yul\":920:952   */\n      slt\n        /* \"#utility.yul\":917:1036   */\n      iszero\n      tag_79\n      jumpi\n        /* \"#utility.yul\":955:1034   */\n      tag_80\n      tag_49\n      jump\t// in\n    tag_80:\n        /* \"#utility.yul\":917:1036   */\n    tag_79:\n        /* \"#utility.yul\":1075:1076   */\n      0x00\n        /* \"#utility.yul\":1100:1153   */\n      tag_81\n        /* \"#utility.yul\":1145:1152   */\n      dup5\n        /* \"#utility.yul\":1136:1142   */\n      dup3\n        /* \"#utility.yul\":1125:1134   */\n      dup6\n        /* \"#utility.yul\":1121:1143   */\n      add\n        /* \"#utility.yul\":1100:1153   */\n      tag_54\n      jump\t// in\n    tag_81:\n        /* \"#utility.yul\":1090:1153   */\n      swap2\n      pop\n        /* \"#utility.yul\":1046:1163   */\n      pop\n        /* \"#utility.yul\":841:1170   */\n      swap3\n      swap2\n      pop\n      pop\n      jump\t// out\n        /* \"#utility.yul\":1176:1294   */\n    tag_55:\n        /* \"#utility.yul\":1263:1287   */\n      tag_83\n        /* \"#utility.yul\":1281:1286   */\n      dup2\n        /* \"#utility.yul\":1263:1287   */\n      tag_52\n      jump\t// in\n    tag_83:\n        /* \"#utility.yul\":1258:1261   */\n      dup3\n        /* \"#utility.yul\":1251:1288   */\n      mstore\n        /* \"#utility.yul\":1176:1294   */\n      pop\n      pop\n      jump\t// out\n        /* \"#utility.yul\":1300:1522   */\n    tag_18:\n        /* \"#utility.yul\":1393:1397   */\n      0x00\n        /* \"#utility.yul\":1431:1433   */\n      0x20\n        /* \"#utility.yul\":1420:1429   */\n      dup3\n        /* \"#utility.yul\":1416:1434   */\n      add\n        /* \"#utility.yul\":1408:1434   */\n      swap1\n      pop\n        /* \"#utility.yul\":1444:1515   */\n      tag_85\n        /* \"#utility.yul\":1512:1513   */\n      0x00\n        /* \"#utility.yul\":1501:1510   */\n      dup4\n        /* \"#utility.yul\":1497:1514   */\n      add\n        /* \"#utility.yul\":1488:1494   */\n      dup5\n        /* \"#utility.yul\":1444:1515   */\n      tag_55\n      jump\t// in\n    tag_85:\n        /* \"#utility.yul\":1300:1522   */\n      swap3\n      swap2\n      pop\n      pop\n      jump\t// out\n        /* \"#utility.yul\":1528:1605   */\n    tag_56:\n        /* \"#utility.yul\":1565:1572   */\n      0x00\n        /* \"#utility.yul\":1594:1599   */\n      dup2\n        /* \"#utility.yul\":1583:1599   */\n      swap1\n      pop\n        /* \"#utility.yul\":1528:1605   */\n      swap2\n      swap1\n      pop\n      jump\t// out\n        /* \"#utility.yul\":1611:1729   */\n    tag_57:\n        /* \"#utility.yul\":1698:1722   */\n      tag_88\n        /* \"#utility.yul\":1716:1721   */\n      dup2\n        /* \"#utility.yul\":1698:1722   */\n      tag_56\n      jump\t// in\n    tag_88:\n        /* \"#utility.yul\":1693:1696   */\n      dup3\n        /* \"#utility.yul\":1686:1723   */\n      mstore\n        /* \"#utility.yul\":1611:1729   */\n      pop\n      pop\n      jump\t// out\n        /* \"#utility.yul\":1735:1957   */\n    tag_27:\n        /* \"#utility.yul\":1828:1832   */\n      0x00\n        /* \"#utility.yul\":1866:1868   */\n      0x20\n        /* \"#utility.yul\":1855:1864   */\n      dup3\n        /* \"#utility.yul\":1851:1869   */\n      add\n        /* \"#utility.yul\":1843:1869   */\n      swap1\n      pop\n        /* \"#utility.yul\":1879:1950   */\n      tag_90\n        /* \"#utility.yul\":1947:1948   */\n      0x00\n        /* \"#utility.yul\":1936:1945   */\n      dup4\n        /* \"#utility.yul\":1932:1949   */\n      add\n        /* \"#utility.yul\":1923:1929   */\n      dup5\n        /* \"#utility.yul\":1879:1950   */\n      tag_57\n      jump\t// in\n    tag_90:\n        /* \"#utility.yul\":1735:1957   */\n      swap3\n      swap2\n      pop\n      pop\n      jump\t// out\n        /* \"#utility.yul\":1963:2132   */\n    tag_58:\n        /* \"#utility.yul\":2047:2058   */\n      0x00\n        /* \"#utility.yul\":2081:2087   */\n      dup3\n        /* \"#utility.yul\":2076:2079   */\n      dup3\n        /* \"#utility.yul\":2069:2088   */\n      mstore\n        /* \"#utility.yul\":2121:2125   */\n      0x20\n        /* \"#utility.yul\":2116:2119   */\n      dup3\n        /* \"#utility.yul\":2112:2126   */\n      add\n        /* \"#utility.yul\":2097:2126   */\n      swap1\n      pop\n        /* \"#utility.yul\":1963:2132   */\n      swap3\n      swap2\n      pop\n      pop\n      jump\t// out\n        /* \"#utility.yul\":2138:2313   */\n    tag_59:\n        /* \"#utility.yul\":2278:2305   */\n      0x4e6f7420656e6f7567682045746865722070726f766964656400000000000000\n        /* \"#utility.yul\":2274:2275   */\n      0x00\n        /* \"#utility.yul\":2266:2272   */\n      dup3\n        /* \"#utility.yul\":2262:2276   */\n      add\n        /* \"#utility.yul\":2255:2306   */\n      mstore\n        /* \"#utility.yul\":2138:2313   */\n      pop\n      jump\t// out\n        /* \"#utility.yul\":2319:2685   */\n    tag_60:\n        /* \"#utility.yul\":2461:2464   */\n      0x00\n        /* \"#utility.yul\":2482:2549   */\n      tag_94\n        /* \"#utility.yul\":2546:2548   */\n      0x19\n        /* \"#utility.yul\":2541:2544   */\n      dup4\n        /* \"#utility.yul\":2482:2549   */\n      tag_58\n      jump\t// in\n    tag_94:\n        /* \"#utility.yul\":2475:2549   */\n      swap2\n      pop\n        /* \"#utility.yul\":2558:2651   */\n      tag_95\n        /* \"#utility.yul\":2647:2650   */\n      dup3\n        /* \"#utility.yul\":2558:2651   */\n      tag_59\n      jump\t// in\n    tag_95:\n        /* \"#utility.yul\":2676:2678   */\n      0x20\n        /* \"#utility.yul\":2671:2674   */\n      dup3\n        /* \"#utility.yul\":2667:2679   */\n      add\n        /* \"#utility.yul\":2660:2679   */\n      swap1\n      pop\n        /* \"#utility.yul\":2319:2685   */\n      swap2\n      swap1\n      pop\n      jump\t// out\n        /* \"#utility.yul\":2691:3110   */\n    tag_31:\n        /* \"#utility.yul\":2857:2861   */\n      0x00\n        /* \"#utility.yul\":2895:2897   */\n      0x20\n        /* \"#utility.yul\":2884:2893   */\n      dup3\n        /* \"#utility.yul\":2880:2898   */\n      add\n        /* \"#utility.yul\":2872:2898   */\n      swap1\n      pop\n        /* \"#utility.yul\":2944:2953   */\n      dup2\n        /* \"#utility.yul\":2938:2942   */\n      dup2\n        /* \"#utility.yul\":2934:2954   */\n      sub\n        /* \"#utility.yul\":2930:2931   */\n      0x00\n        /* \"#utility.yul\":2919:2928   */\n      dup4\n        /* \"#utility.yul\":2915:2932   */\n      add\n        /* \"#utility.yul\":2908:2955   */\n      mstore\n        /* \"#utility.yul\":2972:3103   */\n      tag_97\n        /* \"#utility.yul\":3098:3102   */\n      dup2\n        /* \"#utility.yul\":2972:3103   */\n      tag_60\n      jump\t// in\n    tag_97:\n        /* \"#utility.yul\":2964:3103   */\n      swap1\n      pop\n        /* \"#utility.yul\":2691:3110   */\n      swap2\n      swap1\n      pop\n      jump\t// out\n        /* \"#utility.yul\":3116:3288   */\n    tag_61:\n        /* \"#utility.yul\":3256:3280   */\n      0x73656e646572206e6f7420617574686f72697a65642100000000000000000000\n        /* \"#utility.yul\":3252:3253   */\n      0x00\n        /* \"#utility.yul\":3244:3250   */\n      dup3\n        /* \"#utility.yul\":3240:3254   */\n      add\n        /* \"#utility.yul\":3233:3281   */\n      mstore\n        /* \"#utility.yul\":3116:3288   */\n      pop\n      jump\t// out\n        /* \"#utility.yul\":3294:3660   */\n    tag_62:\n        /* \"#utility.yul\":3436:3439   */\n      0x00\n        /* \"#utility.yul\":3457:3524   */\n      tag_100\n        /* \"#utility.yul\":3521:3523   */\n      0x16\n        /* \"#utility.yul\":3516:3519   */\n      dup4\n        /* \"#utility.yul\":3457:3524   */\n      tag_58\n      jump\t// in\n    tag_100:\n        /* \"#utility.yul\":3450:3524   */\n      swap2\n      pop\n        /* \"#utility.yul\":3533:3626   */\n      tag_101\n        /* \"#utility.yul\":3622:3625   */\n      dup3\n        /* \"#utility.yul\":3533:3626   */\n      tag_61\n      jump\t// in\n    tag_101:\n        /* \"#utility.yul\":3651:3653   */\n      0x20\n        /* \"#utility.yul\":3646:3649   */\n      dup3\n        /* \"#utility.yul\":3642:3654   */\n      add\n        /* \"#utility.yul\":3635:3654   */\n      swap1\n      pop\n        /* \"#utility.yul\":3294:3660   */\n      swap2\n      swap1\n      pop\n      jump\t// out\n        /* \"#utility.yul\":3666:4085   */\n    tag_36:\n        /* \"#utility.yul\":3832:3836   */\n      0x00\n        /* \"#utility.yul\":3870:3872   */\n      0x20\n        /* \"#utility.yul\":3859:3868   */\n      dup3\n        /* \"#utility.yul\":3855:3873   */\n      add\n        /* \"#utility.yul\":3847:3873   */\n      swap1\n      pop\n        /* \"#utility.yul\":3919:3928   */\n      dup2\n        /* \"#utility.yul\":3913:3917   */\n      dup2\n        /* \"#utility.yul\":3909:3929   */\n      sub\n        /* \"#utility.yul\":3905:3906   */\n      0x00\n        /* \"#utility.yul\":3894:3903   */\n      dup4\n        /* \"#utility.yul\":3890:3907   */\n      add\n        /* \"#utility.yul\":3883:3930   */\n      mstore\n        /* \"#utility.yul\":3947:4078   */\n      tag_103\n        /* \"#utility.yul\":4073:4077   */\n      dup2\n        /* \"#utility.yul\":3947:4078   */\n      tag_62\n      jump\t// in\n    tag_103:\n        /* \"#utility.yul\":3939:4078   */\n      swap1\n      pop\n        /* \"#utility.yul\":3666:4085   */\n      swap2\n      swap1\n      pop\n      jump\t// out\n        /* \"#utility.yul\":4091:4271   */\n    tag_63:\n        /* \"#utility.yul\":4139:4216   */\n      0x4e487b7100000000000000000000000000000000000000000000000000000000\n        /* \"#utility.yul\":4136:4137   */\n      0x00\n        /* \"#utility.yul\":4129:4217   */\n      mstore\n        /* \"#utility.yul\":4236:4240   */\n      0x11\n        /* \"#utility.yul\":4233:4234   */\n      0x04\n        /* \"#utility.yul\":4226:4241   */\n      mstore\n        /* \"#utility.yul\":4260:4264   */\n      0x24\n        /* \"#utility.yul\":4257:4258   */\n      0x00\n        /* \"#utility.yul\":4250:4265   */\n      revert\n        /* \"#utility.yul\":4277:4468   */\n    tag_38:\n        /* \"#utility.yul\":4317:4320   */\n      0x00\n        /* \"#utility.yul\":4336:4356   */\n      tag_106\n        /* \"#utility.yul\":4354:4355   */\n      dup3\n        /* \"#utility.yul\":4336:4356   */\n      tag_56\n      jump\t// in\n    tag_106:\n        /* \"#utility.yul\":4331:4356   */\n      swap2\n      pop\n        /* \"#utility.yul\":4370:4390   */\n      tag_107\n        /* \"#utility.yul\":4388:4389   */\n      dup4\n        /* \"#utility.yul\":4370:4390   */\n      tag_56\n      jump\t// in\n    tag_107:\n        /* \"#utility.yul\":4365:4390   */\n      swap3\n      pop\n        /* \"#utility.yul\":4413:4414   */\n      dup3\n        /* \"#utility.yul\":4410:4411   */\n      dup3\n        /* \"#utility.yul\":4406:4415   */\n      add\n        /* \"#utility.yul\":4399:4415   */\n      swap1\n      pop\n        /* \"#utility.yul\":4434:4437   */\n      dup1\n        /* \"#utility.yul\":4431:4432   */\n      dup3\n        /* \"#utility.yul\":4428:4438   */\n      gt\n        /* \"#utility.yul\":4425:4461   */\n      iszero\n      tag_108\n      jumpi\n        /* \"#utility.yul\":4441:4459   */\n      tag_109\n      tag_63\n      jump\t// in\n    tag_109:\n        /* \"#utility.yul\":4425:4461   */\n    tag_108:\n        /* \"#utility.yul\":4277:4468   */\n      swap3\n      swap2\n      pop\n      pop\n      jump\t// out\n        /* \"#utility.yul\":4474:4646   */\n    tag_64:\n        /* \"#utility.yul\":4614:4638   */\n      0x66756e6374696f6e2063616c6c6564206561726c792100000000000000000000\n        /* \"#utility.yul\":4610:4611   */\n      0x00\n        /* \"#utility.yul\":4602:4608   */\n      dup3\n        /* \"#utility.yul\":4598:4612   */\n      add\n        /* \"#utility.yul\":4591:4639   */\n      mstore\n        /* \"#utility.yul\":4474:4646   */\n      pop\n      jump\t// out\n        /* \"#utility.yul\":4652:5018   */\n    tag_65:\n        /* \"#utility.yul\":4794:4797   */\n      0x00\n        /* \"#utility.yul\":4815:4882   */\n      tag_112\n        /* \"#utility.yul\":4879:4881   */\n      0x16\n        /* \"#utility.yul\":4874:4877   */\n      dup4\n        /* \"#utility.yul\":4815:4882   */\n      tag_58\n      jump\t// in\n    tag_112:\n        /* \"#utility.yul\":4808:4882   */\n      swap2\n      pop\n        /* \"#utility.yul\":4891:4984   */\n      tag_113\n        /* \"#utility.yul\":4980:4983   */\n      dup3\n        /* \"#utility.yul\":4891:4984   */\n      tag_64\n      jump\t// in\n    tag_113:\n        /* \"#utility.yul\":5009:5011   */\n      0x20\n        /* \"#utility.yul\":5004:5007   */\n      dup3\n        /* \"#utility.yul\":5000:5012   */\n      add\n        /* \"#utility.yul\":4993:5012   */\n      swap1\n      pop\n        /* \"#utility.yul\":4652:5018   */\n      swap2\n      swap1\n      pop\n      jump\t// out\n        /* \"#utility.yul\":5024:5443   */\n    tag_42:\n        /* \"#utility.yul\":5190:5194   */\n      0x00\n        /* \"#utility.yul\":5228:5230   */\n      0x20\n        /* \"#utility.yul\":5217:5226   */\n      dup3\n        /* \"#utility.yul\":5213:5231   */\n      add\n        /* \"#utility.yul\":5205:5231   */\n      swap1\n      pop\n        /* \"#utility.yul\":5277:5286   */\n      dup2\n        /* \"#utility.yul\":5271:5275   */\n      dup2\n        /* \"#utility.yul\":5267:5287   */\n      sub\n        /* \"#utility.yul\":5263:5264   */\n      0x00\n        /* \"#utility.yul\":5252:5261   */\n      dup4\n        /* \"#utility.yul\":5248:5265   */\n      add\n        /* \"#utility.yul\":5241:5288   */\n      mstore\n        /* \"#utility.yul\":5305:5436   */\n      tag_115\n        /* \"#utility.yul\":5431:5435   */\n      dup2\n        /* \"#utility.yul\":5305:5436   */\n      tag_65\n      jump\t// in\n    tag_115:\n        /* \"#utility.yul\":5297:5436   */\n      swap1\n      pop\n        /* \"#utility.yul\":5024:5443   */\n      swap2\n      swap1\n      pop\n      jump\t// out\n\n    auxdata: 0xa264697066735822122088b23b044d416dcbac3d7803eb6dbacaa9ba7b886f895f05b85f3cd3a143aa3164736f6c63430008120033\n}\n",
				"bytecode": {
					"linkReferences": {},
					"object": "6080604052336000806101000a81548173ffffffffffffffffffffffffffffffffffffffff021916908373ffffffffffffffffffffffffffffffffffffffff1602179055504260015534801561005457600080fd5b50610674806100646000396000f3fe60806040526004361061004a5760003560e01c80630cb0c7f01461004f5780631e9bf0da1461006b5780638da5cb5b14610082578063a6f9dae1146100ad578063d8270dce146100d6575b600080fd5b610069600480360381019061006491906103fb565b610101565b005b34801561007757600080fd5b50610080610192565b005b34801561008e57600080fd5b5061009761029b565b6040516100a49190610437565b60405180910390f35b3480156100b957600080fd5b506100d460048036038101906100cf91906103fb565b6102bf565b005b3480156100e257600080fd5b506100eb610392565b6040516100f8919061046b565b60405180910390f35b680ad78ebc5ac62000008034101561014e576040517f08c379a0000000000000000000000000000000000000000000000000000000008152600401610145906104e3565b60405180910390fd5b816000806101000a81548173ffffffffffffffffffffffffffffffffffffffff021916908373ffffffffffffffffffffffffffffffffffffffff1602179055505050565b60008054906101000a900473ffffffffffffffffffffffffffffffffffffffff168073ffffffffffffffffffffffffffffffffffffffff163373ffffffffffffffffffffffffffffffffffffffff1614610221576040517f08c379a00000000000000000000000000000000000000000000000000000000081526004016102189061054f565b60405180910390fd5b6003600154610230919061059e565b80421015610273576040517f08c379a000000000000000000000000000000000000000000000000000000000815260040161026a9061061e565b60405180910390fd5b6000806101000a81549073ffffffffffffffffffffffffffffffffffffffff02191690555050565b60008054906101000a900473ffffffffffffffffffffffffffffffffffffffff1681565b60008054906101000a900473ffffffffffffffffffffffffffffffffffffffff168073ffffffffffffffffffffffffffffffffffffffff163373ffffffffffffffffffffffffffffffffffffffff161461034e576040517f08c379a00000000000000000000000000000000000000000000000000000000081526004016103459061054f565b60405180910390fd5b816000806101000a81548173ffffffffffffffffffffffffffffffffffffffff021916908373ffffffffffffffffffffffffffffffffffffffff1602179055505050565b60015481565b600080fd5b600073ffffffffffffffffffffffffffffffffffffffff82169050919050565b60006103c88261039d565b9050919050565b6103d8816103bd565b81146103e357600080fd5b50565b6000813590506103f5816103cf565b92915050565b60006020828403121561041157610410610398565b5b600061041f848285016103e6565b91505092915050565b610431816103bd565b82525050565b600060208201905061044c6000830184610428565b92915050565b6000819050919050565b61046581610452565b82525050565b6000602082019050610480600083018461045c565b92915050565b600082825260208201905092915050565b7f4e6f7420656e6f7567682045746865722070726f766964656400000000000000600082015250565b60006104cd601983610486565b91506104d882610497565b602082019050919050565b600060208201905081810360008301526104fc816104c0565b9050919050565b7f73656e646572206e6f7420617574686f72697a65642100000000000000000000600082015250565b6000610539601683610486565b915061054482610503565b602082019050919050565b600060208201905081810360008301526105688161052c565b9050919050565b7f4e487b7100000000000000000000000000000000000000000000000000000000600052601160045260246000fd5b60006105a982610452565b91506105b483610452565b92508282019050808211156105cc576105cb61056f565b5b92915050565b7f66756e6374696f6e2063616c6c6564206561726c792100000000000000000000600082015250565b6000610608601683610486565b9150610613826105d2565b602082019050919050565b60006020820190508181036000830152610637816105fb565b905091905056fea264697066735822122088b23b044d416dcbac3d7803eb6dbacaa9ba7b886f895f05b85f3cd3a143aa3164736f6c63430008120033",
					"opcodes": "PUSH1 0x80 PUSH1 0x40 MSTORE CALLER PUSH1 0x0 DUP1 PUSH2 0x100 EXP DUP2 SLOAD DUP2 PUSH20 0xFFFFFFFFFFFFFFFFFFFFFFFFFFFFFFFFFFFFFFFF MUL NOT AND SWAP1 DUP4 PUSH20 0xFFFFFFFFFFFFFFFFFFFFFFFFFFFFFFFFFFFFFFFF AND MUL OR SWAP1 SSTORE POP TIMESTAMP PUSH1 0x1 SSTORE CALLVALUE DUP1 ISZERO PUSH2 0x54 JUMPI PUSH1 0x0 DUP1 REVERT JUMPDEST POP PUSH2 0x674 DUP1 PUSH2 0x64 PUSH1 0x0 CODECOPY PUSH1 0x0 RETURN INVALID PUSH1 0x80 PUSH1 0x40 MSTORE PUSH1 0x4 CALLDATASIZE LT PUSH2 0x4A JUMPI PUSH1 0x0 CALLDATALOAD PUSH1 0xE0 SHR DUP1 PUSH4 0xCB0C7F0 EQ PUSH2 0x4F JUMPI DUP1 PUSH4 0x1E9BF0DA EQ PUSH2 0x6B JUMPI DUP1 PUSH4 0x8DA5CB5B EQ PUSH2 0x82 JUMPI DUP1 PUSH4 0xA6F9DAE1 EQ PUSH2 0xAD JUMPI DUP1 PUSH4 0xD8270DCE EQ PUSH2 0xD6 JUMPI JUMPDEST PUSH1 0x0 DUP1 REVERT JUMPDEST PUSH2 0x69 PUSH1 0x4 DUP1 CALLDATASIZE SUB DUP2 ADD SWAP1 PUSH2 0x64 SWAP2 SWAP1 PUSH2 0x3FB JUMP JUMPDEST PUSH2 0x101 JUMP JUMPDEST STOP JUMPDEST CALLVALUE DUP1 ISZERO PUSH2 0x77 JUMPI PUSH1 0x0 DUP1 REVERT JUMPDEST POP PUSH2 0x80 PUSH2 0x192 JUMP JUMPDEST STOP JUMPDEST CALLVALUE DUP1 ISZERO PUSH2 0x8E JUMPI PUSH1 0x0 DUP1 REVERT JUMPDEST POP PUSH2 0x97 PUSH2 0x29B JUMP JUMPDEST PUSH1 0x40 MLOAD PUSH2 0xA4 SWAP2 SWAP1 PUSH2 0x437 JUMP JUMPDEST PUSH1 0x40 MLOAD DUP1 SWAP2 SUB SWAP1 RETURN JUMPDEST CALLVALUE DUP1 ISZERO PUSH2 0xB9 JUMPI PUSH1 0x0 DUP1 REVERT JUMPDEST POP PUSH2 0xD4 PUSH1 0x4 DUP1 CALLDATASIZE SUB DUP2 ADD SWAP1 PUSH2 0xCF SWAP2 SWAP1 PUSH2 0x3FB JUMP JUMPDEST PUSH2 0x2BF JUMP JUMPDEST STOP JUMPDEST CALLVALUE DUP1 ISZERO PUSH2 0xE2 JUMPI PUSH1 0x0 DUP1 REVERT JUMPDEST POP PUSH2 0xEB PUSH2 0x392 JUMP JUMPDEST PUSH1 0x40 MLOAD PUSH2 0xF8 SWAP2 SWAP1 PUSH2 0x46B JUMP JUMPDEST PUSH1 0x40 MLOAD DUP1 SWAP2 SUB SWAP1 RETURN JUMPDEST PUSH9 0xAD78EBC5AC6200000 DUP1 CALLVALUE LT ISZERO PUSH2 0x14E JUMPI PUSH1 0x40 MLOAD PUSH32 0x8C379A000000000000000000000000000000000000000000000000000000000 DUP2 MSTORE PUSH1 0x4 ADD PUSH2 0x145 SWAP1 PUSH2 0x4E3 JUMP JUMPDEST PUSH1 0x40 MLOAD DUP1 SWAP2 SUB SWAP1 REVERT JUMPDEST DUP2 PUSH1 0x0 DUP1 PUSH2 0x100 EXP DUP2 SLOAD DUP2 PUSH20 0xFFFFFFFFFFFFFFFFFFFFFFFFFFFFFFFFFFFFFFFF MUL NOT AND SWAP1 DUP4 PUSH20 0xFFFFFFFFFFFFFFFFFFFFFFFFFFFFFFFFFFFFFFFF AND MUL OR SWAP1 SSTORE POP POP POP JUMP JUMPDEST PUSH1 0x0 DUP1 SLOAD SWAP1 PUSH2 0x100 EXP SWAP1 DIV PUSH20 0xFFFFFFFFFFFFFFFFFFFFFFFFFFFFFFFFFFFFFFFF AND DUP1 PUSH20 0xFFFFFFFFFFFFFFFFFFFFFFFFFFFFFFFFFFFFFFFF AND CALLER PUSH20 0xFFFFFFFFFFFFFFFFFFFFFFFFFFFFFFFFFFFFFFFF AND EQ PUSH2 0x221 JUMPI PUSH1 0x40 MLOAD PUSH32 0x8C379A000000000000000000000000000000000000000000000000000000000 DUP2 MSTORE PUSH1 0x4 ADD PUSH2 0x218 SWAP1 PUSH2 0x54F JUMP JUMPDEST PUSH1 0x40 MLOAD DUP1 SWAP2 SUB SWAP1 REVERT JUMPDEST PUSH1 0x3 PUSH1 0x1 SLOAD PUSH2 0x230 SWAP2 SWAP1 PUSH2 0x59E JUMP JUMPDEST DUP1 TIMESTAMP LT ISZERO PUSH2 0x273 JUMPI PUSH1 0x40 MLOAD PUSH32 0x8C379A000000000000000000000000000000000000000000000000000000000 DUP2 MSTORE PUSH1 0x4 ADD PUSH2 0x26A SWAP1 PUSH2 0x61E JUMP JUMPDEST PUSH1 0x40 MLOAD DUP1 SWAP2 SUB SWAP1 REVERT JUMPDEST PUSH1 0x0 DUP1 PUSH2 0x100 EXP DUP2 SLOAD SWAP1 PUSH20 0xFFFFFFFFFFFFFFFFFFFFFFFFFFFFFFFFFFFFFFFF MUL NOT AND SWAP1 SSTORE POP POP JUMP JUMPDEST PUSH1 0x0 DUP1 SLOAD SWAP1 PUSH2 0x100 EXP SWAP1 DIV PUSH20 0xFFFFFFFFFFFFFFFFFFFFFFFFFFFFFFFFFFFFFFFF AND DUP2 JUMP JUMPDEST PUSH1 0x0 DUP1 SLOAD SWAP1 PUSH2 0x100 EXP SWAP1 DIV PUSH20 0xFFFFFFFFFFFFFFFFFFFFFFFFFFFFFFFFFFFFFFFF AND DUP1 PUSH20 0xFFFFFFFFFFFFFFFFFFFFFFFFFFFFFFFFFFFFFFFF AND CALLER PUSH20 0xFFFFFFFFFFFFFFFFFFFFFFFFFFFFFFFFFFFFFFFF AND EQ PUSH2 0x34E JUMPI PUSH1 0x40 MLOAD PUSH32 0x8C379A000000000000000000000000000000000000000000000000000000000 DUP2 MSTORE PUSH1 0x4 ADD PUSH2 0x345 SWAP1 PUSH2 0x54F JUMP JUMPDEST PUSH1 0x40 MLOAD DUP1 SWAP2 SUB SWAP1 REVERT JUMPDEST DUP2 PUSH1 0x0 DUP1 PUSH2 0x100 EXP DUP2 SLOAD DUP2 PUSH20 0xFFFFFFFFFFFFFFFFFFFFFFFFFFFFFFFFFFFFFFFF MUL NOT AND SWAP1 DUP4 PUSH20 0xFFFFFFFFFFFFFFFFFFFFFFFFFFFFFFFFFFFFFFFF AND MUL OR SWAP1 SSTORE POP POP POP JUMP JUMPDEST PUSH1 0x1 SLOAD DUP2 JUMP JUMPDEST PUSH1 0x0 DUP1 REVERT JUMPDEST PUSH1 0x0 PUSH20 0xFFFFFFFFFFFFFFFFFFFFFFFFFFFFFFFFFFFFFFFF DUP3 AND SWAP1 POP SWAP2 SWAP1 POP JUMP JUMPDEST PUSH1 0x0 PUSH2 0x3C8 DUP3 PUSH2 0x39D JUMP JUMPDEST SWAP1 POP SWAP2 SWAP1 POP JUMP JUMPDEST PUSH2 0x3D8 DUP2 PUSH2 0x3BD JUMP JUMPDEST DUP2 EQ PUSH2 0x3E3 JUMPI PUSH1 0x0 DUP1 REVERT JUMPDEST POP JUMP JUMPDEST PUSH1 0x0 DUP2 CALLDATALOAD SWAP1 POP PUSH2 0x3F5 DUP2 PUSH2 0x3CF JUMP JUMPDEST SWAP3 SWAP2 POP POP JUMP JUMPDEST PUSH1 0x0 PUSH1 0x20 DUP3 DUP5 SUB SLT ISZERO PUSH2 0x411 JUMPI PUSH2 0x410 PUSH2 0x398 JUMP JUMPDEST JUMPDEST PUSH1 0x0 PUSH2 0x41F DUP5 DUP3 DUP6 ADD PUSH2 0x3E6 JUMP JUMPDEST SWAP2 POP POP SWAP3 SWAP2 POP POP JUMP JUMPDEST PUSH2 0x431 DUP2 PUSH2 0x3BD JUMP JUMPDEST DUP3 MSTORE POP POP JUMP JUMPDEST PUSH1 0x0 PUSH1 0x20 DUP3 ADD SWAP1 POP PUSH2 0x44C PUSH1 0x0 DUP4 ADD DUP5 PUSH2 0x428 JUMP JUMPDEST SWAP3 SWAP2 POP POP JUMP JUMPDEST PUSH1 0x0 DUP2 SWAP1 POP SWAP2 SWAP1 POP JUMP JUMPDEST PUSH2 0x465 DUP2 PUSH2 0x452 JUMP JUMPDEST DUP3 MSTORE POP POP JUMP JUMPDEST PUSH1 0x0 PUSH1 0x20 DUP3 ADD SWAP1 POP PUSH2 0x480 PUSH1 0x0 DUP4 ADD DUP5 PUSH2 0x45C JUMP JUMPDEST SWAP3 SWAP2 POP POP JUMP JUMPDEST PUSH1 0x0 DUP3 DUP3 MSTORE PUSH1 0x20 DUP3 ADD SWAP1 POP SWAP3 SWAP2 POP POP JUMP JUMPDEST PUSH32 0x4E6F7420656E6F7567682045746865722070726F766964656400000000000000 PUSH1 0x0 DUP3 ADD MSTORE POP JUMP JUMPDEST PUSH1 0x0 PUSH2 0x4CD PUSH1 0x19 DUP4 PUSH2 0x486 JUMP JUMPDEST SWAP2 POP PUSH2 0x4D8 DUP3 PUSH2 0x497 JUMP JUMPDEST PUSH1 0x20 DUP3 ADD SWAP1 POP SWAP2 SWAP1 POP JUMP JUMPDEST PUSH1 0x0 PUSH1 0x20 DUP3 ADD SWAP1 POP DUP2 DUP2 SUB PUSH1 0x0 DUP4 ADD MSTORE PUSH2 0x4FC DUP2 PUSH2 0x4C0 JUMP JUMPDEST SWAP1 POP SWAP2 SWAP1 POP JUMP JUMPDEST PUSH32 0x73656E646572206E6F7420617574686F72697A65642100000000000000000000 PUSH1 0x0 DUP3 ADD MSTORE POP JUMP JUMPDEST PUSH1 0x0 PUSH2 0x539 PUSH1 0x16 DUP4 PUSH2 0x486 JUMP JUMPDEST SWAP2 POP PUSH2 0x544 DUP3 PUSH2 0x503 JUMP JUMPDEST PUSH1 0x20 DUP3 ADD SWAP1 POP SWAP2 SWAP1 POP JUMP JUMPDEST PUSH1 0x0 PUSH1 0x20 DUP3 ADD SWAP1 POP DUP2 DUP2 SUB PUSH1 0x0 DUP4 ADD MSTORE PUSH2 0x568 DUP2 PUSH2 0x52C JUMP JUMPDEST SWAP1 POP SWAP2 SWAP1 POP JUMP JUMPDEST PUSH32 0x4E487B7100000000000000000000000000000000000000000000000000000000 PUSH1 0x0 MSTORE PUSH1 0x11 PUSH1 0x4 MSTORE PUSH1 0x24 PUSH1 0x0 REVERT JUMPDEST PUSH1 0x0 PUSH2 0x5A9 DUP3 PUSH2 0x452 JUMP JUMPDEST SWAP2 POP PUSH2 0x5B4 DUP4 PUSH2 0x452 JUMP JUMPDEST SWAP3 POP DUP3 DUP3 ADD SWAP1 POP DUP1 DUP3 GT ISZERO PUSH2 0x5CC JUMPI PUSH2 0x5CB PUSH2 0x56F JUMP JUMPDEST JUMPDEST SWAP3 SWAP2 POP POP JUMP JUMPDEST PUSH32 0x66756E6374696F6E2063616C6C6564206561726C792100000000000000000000 PUSH1 0x0 DUP3 ADD MSTORE POP JUMP JUMPDEST PUSH1 0x0 PUSH2 0x608 PUSH1 0x16 DUP4 PUSH2 0x486 JUMP JUMPDEST SWAP2 POP PUSH2 0x613 DUP3 PUSH2 0x5D2 JUMP JUMPDEST PUSH1 0x20 DUP3 ADD SWAP1 POP SWAP2 SWAP1 POP JUMP JUMPDEST PUSH1 0x0 PUSH1 0x20 DUP3 ADD SWAP1 POP DUP2 DUP2 SUB PUSH1 0x0 DUP4 ADD MSTORE PUSH2 0x637 DUP2 PUSH2 0x5FB JUMP JUMPDEST SWAP1 POP SWAP2 SWAP1 POP JUMP INVALID LOG2 PUSH5 0x6970667358 0x22 SLT KECCAK256 DUP9 0xB2 EXTCODESIZE DIV 0x4D COINBASE PUSH14 0xCBAC3D7803EB6DBACAA9BA7B886F DUP10 0x5F SDIV 0xB8 0x5F EXTCODECOPY 0xD3 LOG1 NUMBER 0xAA BALANCE PUSH5 0x736F6C6343 STOP ADDMOD SLT STOP CALLER "
				},
				"gasEstimates": {
					"creation": {
						"codeDepositCost": "330400",
						"executionCost": "46739",
						"totalCost": "377139"
					},
					"external": {
						"changeOwner(address)": "26938",
						"creationTime()": "2495",
						"disown()": "infinite",
						"forceOwnerChange(address)": "24706",
						"owner()": "2533"
					}
				},
				"methodIdentifiers": {
					"changeOwner(address)": "a6f9dae1",
					"creationTime()": "d8270dce",
					"disown()": "1e9bf0da",
					"forceOwnerChange(address)": "0cb0c7f0",
					"owner()": "8da5cb5b"
				}
			},
			"storageLayout": {
				"storage": [
					{
						"astId": 5,
						"contract": "restricted-Access.sol:restrictedAccess",
						"label": "owner",
						"offset": 0,
						"slot": "0",
						"type": "t_address"
					},
					{
						"astId": 9,
						"contract": "restricted-Access.sol:restrictedAccess",
						"label": "creationTime",
						"offset": 0,
						"slot": "1",
						"type": "t_uint256"
					}
				],
				"types": {
					"t_address": {
						"encoding": "inplace",
						"label": "address",
						"numberOfBytes": "20"
					},
					"t_uint256": {
						"encoding": "inplace",
						"label": "uint256",
						"numberOfBytes": "32"
					}
				}
			},
			"userdoc": {
				"kind": "user",
				"methods": {},
				"version": 1
			}
		}
	}
}