{
	"data": {
		"bytecode": {
			"linkReferences": {},
			"object": "608060405260016000806101000a81548160ff02191690831515021790555060008060016101000a81548160ff021916908315150217905550600060015534801561004957600080fd5b5061049c806100596000396000f3fe608060405234801561001057600080fd5b506004361061007d5760003560e01c8063ab02dd7b1161005b578063ab02dd7b146100b4578063c000dcdb146100d2578063e472c67c146100dc578063ebaf0dca146100e65761007d565b806366e811c614610082578063849142621461008c578063911ec8f5146100aa575b600080fd5b61008a610104565b005b610094610173565b6040516100a19190610276565b60405180910390f35b6100b2610186565b005b6100bc61019b565b6040516100c99190610276565b60405180910390f35b6100da6101ac565b005b6100e46101d5565b005b6100ee610251565b6040516100fb91906102aa565b60405180910390f35b60008054906101000a900460ff16610136576001600060016101000a81548160ff021916908315150217905550610171565b6040517f08c379a000000000000000000000000000000000000000000000000000000000815260040161016890610348565b60405180910390fd5b565b600060019054906101000a900460ff1681565b60066001540361019957610198610368565b5b565b60008054906101000a900460ff1681565b60008054906101000a900460ff16156000806101000a81548160ff021916908315150217905550565b60008054906101000a900460ff16610222576040517f08c379a0000000000000000000000000000000000000000000000000000000008152600401610219906103e3565b60405180910390fd5b6003600160008282546102359190610432565b9250508190555060066001540361024f5761024e610368565b5b565b6000600154905090565b60008115159050919050565b6102708161025b565b82525050565b600060208201905061028b6000830184610267565b92915050565b6000819050919050565b6102a481610291565b82525050565b60006020820190506102bf600083018461029b565b92915050565b600082825260208201905092915050565b7f4e6f206e65656420746f206272696e6720616e20756d6272656c6c6120746f6460008201527f6179000000000000000000000000000000000000000000000000000000000000602082015250565b60006103326022836102c5565b915061033d826102d6565b604082019050919050565b6000602082019050818103600083015261036181610325565b9050919050565b7f4e487b7100000000000000000000000000000000000000000000000000000000600052600160045260246000fd5b7f4974206973206e6f742073756e6e7920746f6461792100000000000000000000600082015250565b60006103cd6016836102c5565b91506103d882610397565b602082019050919050565b600060208201905081810360008301526103fc816103c0565b9050919050565b7f4e487b7100000000000000000000000000000000000000000000000000000000600052601160045260246000fd5b600061043d82610291565b915061044883610291565b92508282019050808211156104605761045f610403565b5b9291505056fea264697066735822122051fe2b4050be1c926ac43e8ce3eace0d0829d7b45a147917bcde9784be742b6864736f6c63430008120033",
			"opcodes": "PUSH1 0x80 PUSH1 0x40 MSTORE PUSH1 0x1 PUSH1 0x0 DUP1 PUSH2 0x100 EXP DUP2 SLOAD DUP2 PUSH1 0xFF MUL NOT AND SWAP1 DUP4 ISZERO ISZERO MUL OR SWAP1 SSTORE POP PUSH1 0x0 DUP1 PUSH1 0x1 PUSH2 0x100 EXP DUP2 SLOAD DUP2 PUSH1 0xFF MUL NOT AND SWAP1 DUP4 ISZERO ISZERO MUL OR SWAP1 SSTORE POP PUSH1 0x0 PUSH1 0x1 SSTORE CALLVALUE DUP1 ISZERO PUSH2 0x49 JUMPI PUSH1 0x0 DUP1 REVERT JUMPDEST POP PUSH2 0x49C DUP1 PUSH2 0x59 PUSH1 0x0 CODECOPY PUSH1 0x0 RETURN INVALID PUSH1 0x80 PUSH1 0x40 MSTORE CALLVALUE DUP1 ISZERO PUSH2 0x10 JUMPI PUSH1 0x0 DUP1 REVERT JUMPDEST POP PUSH1 0x4 CALLDATASIZE LT PUSH2 0x7D JUMPI PUSH1 0x0 CALLDATALOAD PUSH1 0xE0 SHR DUP1 PUSH4 0xAB02DD7B GT PUSH2 0x5B JUMPI DUP1 PUSH4 0xAB02DD7B EQ PUSH2 0xB4 JUMPI DUP1 PUSH4 0xC000DCDB EQ PUSH2 0xD2 JUMPI DUP1 PUSH4 0xE472C67C EQ PUSH2 0xDC JUMPI DUP1 PUSH4 0xEBAF0DCA EQ PUSH2 0xE6 JUMPI PUSH2 0x7D JUMP JUMPDEST DUP1 PUSH4 0x66E811C6 EQ PUSH2 0x82 JUMPI DUP1 PUSH4 0x84914262 EQ PUSH2 0x8C JUMPI DUP1 PUSH4 0x911EC8F5 EQ PUSH2 0xAA JUMPI JUMPDEST PUSH1 0x0 DUP1 REVERT JUMPDEST PUSH2 0x8A PUSH2 0x104 JUMP JUMPDEST STOP JUMPDEST PUSH2 0x94 PUSH2 0x173 JUMP JUMPDEST PUSH1 0x40 MLOAD PUSH2 0xA1 SWAP2 SWAP1 PUSH2 0x276 JUMP JUMPDEST PUSH1 0x40 MLOAD DUP1 SWAP2 SUB SWAP1 RETURN JUMPDEST PUSH2 0xB2 PUSH2 0x186 JUMP JUMPDEST STOP JUMPDEST PUSH2 0xBC PUSH2 0x19B JUMP JUMPDEST PUSH1 0x40 MLOAD PUSH2 0xC9 SWAP2 SWAP1 PUSH2 0x276 JUMP JUMPDEST PUSH1 0x40 MLOAD DUP1 SWAP2 SUB SWAP1 RETURN JUMPDEST PUSH2 0xDA PUSH2 0x1AC JUMP JUMPDEST STOP JUMPDEST PUSH2 0xE4 PUSH2 0x1D5 JUMP JUMPDEST STOP JUMPDEST PUSH2 0xEE PUSH2 0x251 JUMP JUMPDEST PUSH1 0x40 MLOAD PUSH2 0xFB SWAP2 SWAP1 PUSH2 0x2AA JUMP JUMPDEST PUSH1 0x40 MLOAD DUP1 SWAP2 SUB SWAP1 RETURN JUMPDEST PUSH1 0x0 DUP1 SLOAD SWAP1 PUSH2 0x100 EXP SWAP1 DIV PUSH1 0xFF AND PUSH2 0x136 JUMPI PUSH1 0x1 PUSH1 0x0 PUSH1 0x1 PUSH2 0x100 EXP DUP2 SLOAD DUP2 PUSH1 0xFF MUL NOT AND SWAP1 DUP4 ISZERO ISZERO MUL OR SWAP1 SSTORE POP PUSH2 0x171 JUMP JUMPDEST PUSH1 0x40 MLOAD PUSH32 0x8C379A000000000000000000000000000000000000000000000000000000000 DUP2 MSTORE PUSH1 0x4 ADD PUSH2 0x168 SWAP1 PUSH2 0x348 JUMP JUMPDEST PUSH1 0x40 MLOAD DUP1 SWAP2 SUB SWAP1 REVERT JUMPDEST JUMP JUMPDEST PUSH1 0x0 PUSH1 0x1 SWAP1 SLOAD SWAP1 PUSH2 0x100 EXP SWAP1 DIV PUSH1 0xFF AND DUP2 JUMP JUMPDEST PUSH1 0x6 PUSH1 0x1 SLOAD SUB PUSH2 0x199 JUMPI PUSH2 0x198 PUSH2 0x368 JUMP JUMPDEST JUMPDEST JUMP JUMPDEST PUSH1 0x0 DUP1 SLOAD SWAP1 PUSH2 0x100 EXP SWAP1 DIV PUSH1 0xFF AND DUP2 JUMP JUMPDEST PUSH1 0x0 DUP1 SLOAD SWAP1 PUSH2 0x100 EXP SWAP1 DIV PUSH1 0xFF AND ISZERO PUSH1 0x0 DUP1 PUSH2 0x100 EXP DUP2 SLOAD DUP2 PUSH1 0xFF MUL NOT AND SWAP1 DUP4 ISZERO ISZERO MUL OR SWAP1 SSTORE POP JUMP JUMPDEST PUSH1 0x0 DUP1 SLOAD SWAP1 PUSH2 0x100 EXP SWAP1 DIV PUSH1 0xFF AND PUSH2 0x222 JUMPI PUSH1 0x40 MLOAD PUSH32 0x8C379A000000000000000000000000000000000000000000000000000000000 DUP2 MSTORE PUSH1 0x4 ADD PUSH2 0x219 SWAP1 PUSH2 0x3E3 JUMP JUMPDEST PUSH1 0x40 MLOAD DUP1 SWAP2 SUB SWAP1 REVERT JUMPDEST PUSH1 0x3 PUSH1 0x1 PUSH1 0x0 DUP3 DUP3 SLOAD PUSH2 0x235 SWAP2 SWAP1 PUSH2 0x432 JUMP JUMPDEST SWAP3 POP POP DUP2 SWAP1 SSTORE POP PUSH1 0x6 PUSH1 0x1 SLOAD SUB PUSH2 0x24F JUMPI PUSH2 0x24E PUSH2 0x368 JUMP JUMPDEST JUMPDEST JUMP JUMPDEST PUSH1 0x0 PUSH1 0x1 SLOAD SWAP1 POP SWAP1 JUMP JUMPDEST PUSH1 0x0 DUP2 ISZERO ISZERO SWAP1 POP SWAP2 SWAP1 POP JUMP JUMPDEST PUSH2 0x270 DUP2 PUSH2 0x25B JUMP JUMPDEST DUP3 MSTORE POP POP JUMP JUMPDEST PUSH1 0x0 PUSH1 0x20 DUP3 ADD SWAP1 POP PUSH2 0x28B PUSH1 0x0 DUP4 ADD DUP5 PUSH2 0x267 JUMP JUMPDEST SWAP3 SWAP2 POP POP JUMP JUMPDEST PUSH1 0x0 DUP2 SWAP1 POP SWAP2 SWAP1 POP JUMP JUMPDEST PUSH2 0x2A4 DUP2 PUSH2 0x291 JUMP JUMPDEST DUP3 MSTORE POP POP JUMP JUMPDEST PUSH1 0x0 PUSH1 0x20 DUP3 ADD SWAP1 POP PUSH2 0x2BF PUSH1 0x0 DUP4 ADD DUP5 PUSH2 0x29B JUMP JUMPDEST SWAP3 SWAP2 POP POP JUMP JUMPDEST PUSH1 0x0 DUP3 DUP3 MSTORE PUSH1 0x20 DUP3 ADD SWAP1 POP SWAP3 SWAP2 POP POP JUMP JUMPDEST PUSH32 0x4E6F206E65656420746F206272696E6720616E20756D6272656C6C6120746F64 PUSH1 0x0 DUP3 ADD MSTORE PUSH32 0x6179000000000000000000000000000000000000000000000000000000000000 PUSH1 0x20 DUP3 ADD MSTORE POP JUMP JUMPDEST PUSH1 0x0 PUSH2 0x332 PUSH1 0x22 DUP4 PUSH2 0x2C5 JUMP JUMPDEST SWAP2 POP PUSH2 0x33D DUP3 PUSH2 0x2D6 JUMP JUMPDEST PUSH1 0x40 DUP3 ADD SWAP1 POP SWAP2 SWAP1 POP JUMP JUMPDEST PUSH1 0x0 PUSH1 0x20 DUP3 ADD SWAP1 POP DUP2 DUP2 SUB PUSH1 0x0 DUP4 ADD MSTORE PUSH2 0x361 DUP2 PUSH2 0x325 JUMP JUMPDEST SWAP1 POP SWAP2 SWAP1 POP JUMP JUMPDEST PUSH32 0x4E487B7100000000000000000000000000000000000000000000000000000000 PUSH1 0x0 MSTORE PUSH1 0x1 PUSH1 0x4 MSTORE PUSH1 0x24 PUSH1 0x0 REVERT JUMPDEST PUSH32 0x4974206973206E6F742073756E6E7920746F6461792100000000000000000000 PUSH1 0x0 DUP3 ADD MSTORE POP JUMP JUMPDEST PUSH1 0x0 PUSH2 0x3CD PUSH1 0x16 DUP4 PUSH2 0x2C5 JUMP JUMPDEST SWAP2 POP PUSH2 0x3D8 DUP3 PUSH2 0x397 JUMP JUMPDEST PUSH1 0x20 DUP3 ADD SWAP1 POP SWAP2 SWAP1 POP JUMP JUMPDEST PUSH1 0x0 PUSH1 0x20 DUP3 ADD SWAP1 POP DUP2 DUP2 SUB PUSH1 0x0 DUP4 ADD MSTORE PUSH2 0x3FC DUP2 PUSH2 0x3C0 JUMP JUMPDEST SWAP1 POP SWAP2 SWAP1 POP JUMP JUMPDEST PUSH32 0x4E487B7100000000000000000000000000000000000000000000000000000000 PUSH1 0x0 MSTORE PUSH1 0x11 PUSH1 0x4 MSTORE PUSH1 0x24 PUSH1 0x0 REVERT JUMPDEST PUSH1 0x0 PUSH2 0x43D DUP3 PUSH2 0x291 JUMP JUMPDEST SWAP2 POP PUSH2 0x448 DUP4 PUSH2 0x291 JUMP JUMPDEST SWAP3 POP DUP3 DUP3 ADD SWAP1 POP DUP1 DUP3 GT ISZERO PUSH2 0x460 JUMPI PUSH2 0x45F PUSH2 0x403 JUMP JUMPDEST JUMPDEST SWAP3 SWAP2 POP POP JUMP INVALID LOG2 PUSH5 0x6970667358 0x22 SLT KECCAK256 MLOAD INVALID 0x2B BLOCKHASH POP 0xBE SHR SWAP3 PUSH11 0xC43E8CE3EACE0D0829D7B4 GAS EQ PUSH26 0x17BCDE9784BE742B6864736F6C63430008120033000000000000 "
		},
		"gasEstimates": {
			"creation": {
				"codeDepositCost": "236000",
				"executionCost": "53865",
				"totalCost": "289865"
			},
			"external": {
				"bringUmbrella()": "26623",
				"getCalc()": "2503",
				"internalTestUnits()": "2341",
				"solarCalc()": "infinite",
				"sunny()": "2468",
				"umbrella()": "2544",
				"weatherChanger()": "26569"
			}
		},
		"methodIdentifiers": {
			"bringUmbrella()": "66e811c6",
			"getCalc()": "ebaf0dca",
			"internalTestUnits()": "911ec8f5",
			"solarCalc()": "e472c67c",
			"sunny()": "ab02dd7b",
			"umbrella()": "84914262",
			"weatherChanger()": "c000dcdb"
		}
	},
	"abi": [
		{
			"inputs": [],
			"name": "bringUmbrella",
			"outputs": [],
			"stateMutability": "nonpayable",
			"type": "function"
		},
		{
			"inputs": [],
			"name": "getCalc",
			"outputs": [
				{
					"internalType": "uint256",
					"name": "",
					"type": "uint256"
				}
			],
			"stateMutability": "view",
			"type": "function"
		},
		{
			"inputs": [],
			"name": "internalTestUnits",
			"outputs": [],
			"stateMutability": "view",
			"type": "function"
		},
		{
			"inputs": [],
			"name": "solarCalc",
			"outputs": [],
			"stateMutability": "nonpayable",
			"type": "function"
		},
		{
			"inputs": [],
			"name": "sunny",
			"outputs": [
				{
					"internalType": "bool",
					"name": "",
					"type": "bool"
				}
			],
			"stateMutability": "view",
			"type": "function"
		},
		{
			"inputs": [],
			"name": "umbrella",
			"outputs": [
				{
					"internalType": "bool",
					"name": "",
					"type": "bool"
				}
			],
			"stateMutability": "view",
			"type": "function"
		},
		{
			"inputs": [],
			"name": "weatherChanger",
			"outputs": [],
			"stateMutability": "nonpayable",
			"type": "function"
		}
	]
}